{
  "address": "0x5a4C3D3f3e20be18F461Fc4a5062bE4f4EeC2351",
  "abi": [
    {
      "inputs": [
        {
          "internalType": "address",
          "name": "_endpoint",
          "type": "address"
        },
        {
          "internalType": "address",
          "name": "_owner",
          "type": "address"
        }
      ],
      "stateMutability": "nonpayable",
      "type": "constructor"
    },
    {
      "inputs": [],
      "name": "InvalidDelegate",
      "type": "error"
    },
    {
      "inputs": [],
      "name": "InvalidEndpointCall",
      "type": "error"
    },
    {
      "inputs": [],
      "name": "LzTokenUnavailable",
      "type": "error"
    },
    {
      "inputs": [
        {
          "internalType": "uint32",
          "name": "eid",
          "type": "uint32"
        }
      ],
      "name": "NoPeer",
      "type": "error"
    },
    {
      "inputs": [
        {
          "internalType": "uint256",
          "name": "msgValue",
          "type": "uint256"
        }
      ],
      "name": "NotEnoughNative",
      "type": "error"
    },
    {
      "inputs": [
        {
          "internalType": "address",
          "name": "addr",
          "type": "address"
        }
      ],
      "name": "OnlyEndpoint",
      "type": "error"
    },
    {
      "inputs": [
        {
          "internalType": "uint32",
          "name": "eid",
          "type": "uint32"
        },
        {
          "internalType": "bytes32",
          "name": "sender",
          "type": "bytes32"
        }
      ],
      "name": "OnlyPeer",
      "type": "error"
    },
    {
      "inputs": [
        {
          "internalType": "address",
          "name": "owner",
          "type": "address"
        }
      ],
      "name": "OwnableInvalidOwner",
      "type": "error"
    },
    {
      "inputs": [
        {
          "internalType": "address",
          "name": "account",
          "type": "address"
        }
      ],
      "name": "OwnableUnauthorizedAccount",
      "type": "error"
    },
    {
      "inputs": [
        {
          "internalType": "address",
          "name": "token",
          "type": "address"
        }
      ],
      "name": "SafeERC20FailedOperation",
      "type": "error"
    },
    {
      "anonymous": false,
      "inputs": [
        {
          "indexed": true,
          "internalType": "address",
          "name": "previousOwner",
          "type": "address"
        },
        {
          "indexed": true,
          "internalType": "address",
          "name": "newOwner",
          "type": "address"
        }
      ],
      "name": "OwnershipTransferred",
      "type": "event"
    },
    {
      "anonymous": false,
      "inputs": [
        {
          "indexed": false,
          "internalType": "uint32",
          "name": "eid",
          "type": "uint32"
        },
        {
          "indexed": false,
          "internalType": "bytes32",
          "name": "peer",
          "type": "bytes32"
        }
      ],
      "name": "PeerSet",
      "type": "event"
    },
    {
      "inputs": [
        {
          "components": [
            {
              "internalType": "uint32",
              "name": "srcEid",
              "type": "uint32"
            },
            {
              "internalType": "bytes32",
              "name": "sender",
              "type": "bytes32"
            },
            {
              "internalType": "uint64",
              "name": "nonce",
              "type": "uint64"
            }
          ],
          "internalType": "struct Origin",
          "name": "origin",
          "type": "tuple"
        }
      ],
      "name": "allowInitializePath",
      "outputs": [
        {
          "internalType": "bool",
          "name": "",
          "type": "bool"
        }
      ],
      "stateMutability": "view",
      "type": "function"
    },
    {
      "inputs": [],
      "name": "endpoint",
      "outputs": [
        {
          "internalType": "contract ILayerZeroEndpointV2",
          "name": "",
          "type": "address"
        }
      ],
      "stateMutability": "view",
      "type": "function"
    },
    {
      "inputs": [
        {
          "components": [
            {
              "internalType": "uint32",
              "name": "srcEid",
              "type": "uint32"
            },
            {
              "internalType": "bytes32",
              "name": "sender",
              "type": "bytes32"
            },
            {
              "internalType": "uint64",
              "name": "nonce",
              "type": "uint64"
            }
          ],
          "internalType": "struct Origin",
          "name": "",
          "type": "tuple"
        },
        {
          "internalType": "bytes",
          "name": "",
          "type": "bytes"
        },
        {
          "internalType": "address",
          "name": "_sender",
          "type": "address"
        }
      ],
      "name": "isComposeMsgSender",
      "outputs": [
        {
          "internalType": "bool",
          "name": "",
          "type": "bool"
        }
      ],
      "stateMutability": "view",
      "type": "function"
    },
    {
      "inputs": [
        {
          "components": [
            {
              "internalType": "uint32",
              "name": "srcEid",
              "type": "uint32"
            },
            {
              "internalType": "bytes32",
              "name": "sender",
              "type": "bytes32"
            },
            {
              "internalType": "uint64",
              "name": "nonce",
              "type": "uint64"
            }
          ],
          "internalType": "struct Origin",
          "name": "_origin",
          "type": "tuple"
        },
        {
          "internalType": "bytes32",
          "name": "_guid",
          "type": "bytes32"
        },
        {
          "internalType": "bytes",
          "name": "_message",
          "type": "bytes"
        },
        {
          "internalType": "address",
          "name": "_executor",
          "type": "address"
        },
        {
          "internalType": "bytes",
          "name": "_extraData",
          "type": "bytes"
        }
      ],
      "name": "lzReceive",
      "outputs": [],
      "stateMutability": "payable",
      "type": "function"
    },
    {
      "inputs": [
        {
          "internalType": "uint32",
          "name": "",
          "type": "uint32"
        },
        {
          "internalType": "bytes32",
          "name": "",
          "type": "bytes32"
        }
      ],
      "name": "nextNonce",
      "outputs": [
        {
          "internalType": "uint64",
          "name": "nonce",
          "type": "uint64"
        }
      ],
      "stateMutability": "view",
      "type": "function"
    },
    {
      "inputs": [],
      "name": "oAppVersion",
      "outputs": [
        {
          "internalType": "uint64",
          "name": "senderVersion",
          "type": "uint64"
        },
        {
          "internalType": "uint64",
          "name": "receiverVersion",
          "type": "uint64"
        }
      ],
      "stateMutability": "pure",
      "type": "function"
    },
    {
      "inputs": [],
      "name": "owner",
      "outputs": [
        {
          "internalType": "address",
          "name": "",
          "type": "address"
        }
      ],
      "stateMutability": "view",
      "type": "function"
    },
    {
      "inputs": [
        {
          "internalType": "uint32",
          "name": "eid",
          "type": "uint32"
        }
      ],
      "name": "peers",
      "outputs": [
        {
          "internalType": "bytes32",
          "name": "peer",
          "type": "bytes32"
        }
      ],
      "stateMutability": "view",
      "type": "function"
    },
    {
      "inputs": [],
      "name": "renounceOwnership",
      "outputs": [],
      "stateMutability": "nonpayable",
      "type": "function"
    },
    {
      "inputs": [
        {
          "internalType": "uint32",
          "name": "dstEid",
          "type": "uint32"
        },
        {
          "internalType": "uint256",
          "name": "amount",
          "type": "uint256"
        },
        {
          "internalType": "string",
          "name": "txId",
          "type": "string"
        },
        {
          "internalType": "bytes",
          "name": "options",
          "type": "bytes"
        }
      ],
      "name": "sendPayment",
      "outputs": [],
      "stateMutability": "payable",
      "type": "function"
    },
    {
      "inputs": [
        {
          "internalType": "address",
          "name": "_delegate",
          "type": "address"
        }
      ],
      "name": "setDelegate",
      "outputs": [],
      "stateMutability": "nonpayable",
      "type": "function"
    },
    {
      "inputs": [
        {
          "internalType": "uint32",
          "name": "_eid",
          "type": "uint32"
        },
        {
          "internalType": "bytes32",
          "name": "_peer",
          "type": "bytes32"
        }
      ],
      "name": "setPeer",
      "outputs": [],
      "stateMutability": "nonpayable",
      "type": "function"
    },
    {
      "inputs": [
        {
          "internalType": "address",
          "name": "newOwner",
          "type": "address"
        }
      ],
      "name": "transferOwnership",
      "outputs": [],
      "stateMutability": "nonpayable",
      "type": "function"
    }
  ],
  "transactionHash": "0x9e80654e4b40d11081755052434deef20bc11742890d2d34d05e223dd9602333",
  "args": [
    "0x6EDCE65403992e310A62460808c4b910D972f10f",
    "0x10A0bdFCD243E1BBb2b98e6263dbd33F61765bBE"
  ],
  "numDeployments": 1,
  "solcInputHash": "d8370525eba9f11cd945ceeebd16c5cc",
  "bytecode": "0x60a060405234801561001057600080fd5b50604051620010c2380380620010c283398101604081905261003191610171565b81818181806001600160a01b03811661006457604051631e4fbdf760e01b81526000600482015260240160405180910390fd5b61006d81610105565b506001600160a01b03808316608052811661009b57604051632d618d8160e21b815260040160405180910390fd5b60805160405163ca5eb5e160e01b81526001600160a01b0383811660048301529091169063ca5eb5e190602401600060405180830381600087803b1580156100e257600080fd5b505af11580156100f6573d6000803e3d6000fd5b505050505050505050506101a4565b600080546001600160a01b038381166001600160a01b0319831681178455604051919092169283917f8be0079c531659141344cd1fd0a4f28419497f9722a3daafe3b4186f6b6457e09190a35050565b80516001600160a01b038116811461016c57600080fd5b919050565b6000806040838503121561018457600080fd5b61018d83610155565b915061019b60208401610155565b90509250929050565b608051610edf620001e360003960008181610135015281816102cd015281816103dc0152818161071d0152818161082101526108d80152610edf6000f3fe6080604052600436106100c25760003560e01c806382413eac1161007f578063ca5eb5e111610059578063ca5eb5e114610258578063f2fde38b14610278578063fbfb18c814610298578063ff7bd03d146102ab57600080fd5b806382413eac146101c05780638da5cb5b146101ff578063bb0b6a531461021d57600080fd5b806313137d65146100c757806317442b70146100dc5780633400288b146101035780635e280f1114610123578063715018a61461016f5780637d25a05e14610184575b600080fd5b6100da6100d5366004610a84565b6102cb565b005b3480156100e857600080fd5b50604080516001815260026020820152015b60405180910390f35b34801561010f57600080fd5b506100da61011e366004610b3d565b61038b565b34801561012f57600080fd5b506101577f000000000000000000000000000000000000000000000000000000000000000081565b6040516001600160a01b0390911681526020016100fa565b34801561017b57600080fd5b506100da6103a1565b34801561019057600080fd5b506101a761019f366004610b3d565b600092915050565b60405167ffffffffffffffff90911681526020016100fa565b3480156101cc57600080fd5b506101ef6101db366004610b67565b6001600160a01b0381163014949350505050565b60405190151581526020016100fa565b34801561020b57600080fd5b506000546001600160a01b0316610157565b34801561022957600080fd5b5061024a610238366004610bce565b60016020526000908152604090205481565b6040519081526020016100fa565b34801561026457600080fd5b506100da610273366004610bf0565b6103b5565b34801561028457600080fd5b506100da610293366004610bf0565b61043b565b6100da6102a6366004610c0d565b610479565b3480156102b757600080fd5b506101ef6102c6366004610c97565b610549565b7f00000000000000000000000000000000000000000000000000000000000000006001600160a01b0316331461031b576040516391ac5e4f60e01b81523360048201526024015b60405180910390fd5b6020870180359061033590610330908a610bce565b61057f565b14610373576103476020880188610bce565b60405163309afaf360e21b815263ffffffff909116600482015260208801356024820152604401610312565b610382878787878787876105c1565b50505050505050565b610393610618565b61039d8282610645565b5050565b6103a9610618565b6103b3600061069a565b565b6103bd610618565b60405163ca5eb5e160e01b81526001600160a01b0382811660048301527f0000000000000000000000000000000000000000000000000000000000000000169063ca5eb5e190602401600060405180830381600087803b15801561042057600080fd5b505af1158015610434573d6000803e3d6000fd5b5050505050565b610443610618565b6001600160a01b03811661046d57604051631e4fbdf760e01b815260006004820152602401610312565b6104768161069a565b50565b6040805160608101825233815260208082018890528251601f8701829004820281018201845286815260009383019188908890819084018382808284376000920182905250939094525050604051929350916104da91508390602001610cf9565b60408051601f198184030181526020601f8701819004810284018101909252858352925061053e918a918491908890889081908401838280828437600092018290525060408051808201909152348152602081019190915292503391506106ea9050565b505050505050505050565b60006020820180359060019083906105619086610bce565b63ffffffff1681526020810191909152604001600020541492915050565b63ffffffff8116600090815260016020526040812054806105bb5760405163f6ff4fb760e01b815263ffffffff84166004820152602401610312565b92915050565b60405162461bcd60e51b815260206004820152602660248201527f5061796d656e7453656e6465723a20726563656976696e67206e6f74207375706044820152651c1bdc9d195960d21b6064820152608401610312565b6000546001600160a01b031633146103b35760405163118cdaa760e01b8152336004820152602401610312565b63ffffffff8216600081815260016020908152604091829020849055815192835282018390527f238399d427b947898edb290f5ff0f9109849b1c3ba196a42e35f00c50a54b98b910160405180910390a15050565b600080546001600160a01b038381166001600160a01b0319831681178455604051919092169283917f8be0079c531659141344cd1fd0a4f28419497f9722a3daafe3b4186f6b6457e09190a35050565b6106f26109c6565b600061070184600001516107f5565b60208501519091501561071b5761071b846020015161081d565b7f00000000000000000000000000000000000000000000000000000000000000006001600160a01b0316632637a450826040518060a001604052808b63ffffffff16815260200161076b8c61057f565b81526020018a815260200189815260200160008960200151111515815250866040518463ffffffff1660e01b81526004016107a7929190610d38565b60806040518083038185885af11580156107c5573d6000803e3d6000fd5b50505050506040513d601f19601f820116820180604052508101906107ea9190610de8565b979650505050505050565b6000813414610819576040516304fb820960e51b8152346004820152602401610312565b5090565b60007f00000000000000000000000000000000000000000000000000000000000000006001600160a01b031663e4fe1d946040518163ffffffff1660e01b8152600401602060405180830381865afa15801561087d573d6000803e3d6000fd5b505050506040513d601f19601f820116820180604052508101906108a19190610e8c565b90506001600160a01b0381166108ca576040516329b99a9560e11b815260040160405180910390fd5b6040805133602482018190527f00000000000000000000000000000000000000000000000000000000000000006001600160a01b03818116604485015260648085018890528551808603909101815260849094019094526020830180516001600160e01b03166323b872dd60e01b17905261039d93851692869061094f908590610955565b50505050565b600080602060008451602086016000885af180610978576040513d6000823e3d81fd5b50506000513d9150811561099057806001141561099d565b6001600160a01b0384163b155b1561094f57604051635274afe760e01b81526001600160a01b0385166004820152602401610312565b604051806060016040528060008019168152602001600067ffffffffffffffff168152602001610a09604051806040016040528060008152602001600081525090565b905290565b600060608284031215610a2057600080fd5b50919050565b60008083601f840112610a3857600080fd5b50813567ffffffffffffffff811115610a5057600080fd5b602083019150836020828501011115610a6857600080fd5b9250929050565b6001600160a01b038116811461047657600080fd5b600080600080600080600060e0888a031215610a9f57600080fd5b610aa98989610a0e565b965060608801359550608088013567ffffffffffffffff80821115610acd57600080fd5b610ad98b838c01610a26565b909750955060a08a01359150610aee82610a6f565b90935060c08901359080821115610b0457600080fd5b50610b118a828b01610a26565b989b979a50959850939692959293505050565b803563ffffffff81168114610b3857600080fd5b919050565b60008060408385031215610b5057600080fd5b610b5983610b24565b946020939093013593505050565b60008060008060a08587031215610b7d57600080fd5b610b878686610a0e565b9350606085013567ffffffffffffffff811115610ba357600080fd5b610baf87828801610a26565b9094509250506080850135610bc381610a6f565b939692955090935050565b600060208284031215610be057600080fd5b610be982610b24565b9392505050565b600060208284031215610c0257600080fd5b8135610be981610a6f565b60008060008060008060808789031215610c2657600080fd5b610c2f87610b24565b955060208701359450604087013567ffffffffffffffff80821115610c5357600080fd5b610c5f8a838b01610a26565b90965094506060890135915080821115610c7857600080fd5b50610c8589828a01610a26565b979a9699509497509295939492505050565b600060608284031215610ca957600080fd5b610be98383610a0e565b6000815180845260005b81811015610cd957602081850181015186830182015201610cbd565b506000602082860101526020601f19601f83011685010191505092915050565b6020815260018060a01b0382511660208201526020820151604082015260006040830151606080840152610d306080840182610cb3565b949350505050565b6040815263ffffffff8351166040820152602083015160608201526000604084015160a06080840152610d6e60e0840182610cb3565b90506060850151603f198483030160a0850152610d8b8282610cb3565b60809690960151151560c08501525050506001600160a01b039190911660209091015290565b6040805190810167ffffffffffffffff81118282101715610de257634e487b7160e01b600052604160045260246000fd5b60405290565b60008183036080811215610dfb57600080fd5b6040516060810167ffffffffffffffff8282108183111715610e2d57634e487b7160e01b600052604160045260246000fd5b8160405285518352602086015191508082168214610e4a57600080fd5b5060208201526040603f1983011215610e6257600080fd5b610e6a610db1565b6040858101518252606090950151602082015293810193909352509092915050565b600060208284031215610e9e57600080fd5b8151610be981610a6f56fea264697066735822122083fe4731b7c303cc45d0bb8982cb1cd7af8a8d37f7ce9d4044286545356b37b664736f6c63430008160033",
  "devdoc": {
    "errors": {
      "OwnableInvalidOwner(address)": [
        {
          "details": "The owner is not a valid owner account. (eg. `address(0)`)"
        }
      ],
      "OwnableUnauthorizedAccount(address)": [
        {
          "details": "The caller account is not authorized to perform an operation."
        }
      ],
      "SafeERC20FailedOperation(address)": [
        {
          "details": "An operation with an ERC-20 token failed."
        }
      ]
    },
    "kind": "dev",
    "methods": {
      "allowInitializePath((uint32,bytes32,uint64))": {
        "details": "This indicates to the endpoint that the OApp has enabled msgs for this particular path to be received.This defaults to assuming if a peer has been set, its initialized. Can be overridden by the OApp if there is other logic to determine this.",
        "params": {
          "origin": "The origin information containing the source endpoint and sender address."
        },
        "returns": {
          "_0": "Whether the path has been initialized."
        }
      },
      "isComposeMsgSender((uint32,bytes32,uint64),bytes,address)": {
        "details": "_origin The origin information containing the source endpoint and sender address.  - srcEid: The source chain endpoint ID.  - sender: The sender address on the src chain.  - nonce: The nonce of the message._message The lzReceive payload.Applications can optionally choose to implement separate composeMsg senders that are NOT the bridging layer.The default sender IS the OAppReceiver implementer.",
        "params": {
          "_sender": "The sender address."
        },
        "returns": {
          "_0": "isSender Is a valid sender."
        }
      },
      "lzReceive((uint32,bytes32,uint64),bytes32,bytes,address,bytes)": {
        "details": "Entry point for receiving messages or packets from the endpoint.Entry point for receiving msg/packet from the LayerZero endpoint.",
        "params": {
          "_executor": "The address of the executor for the received message.",
          "_extraData": "Additional arbitrary data provided by the corresponding executor.",
          "_guid": "The unique identifier for the received LayerZero message.",
          "_message": "The payload of the received message.",
          "_origin": "The origin information containing the source endpoint and sender address.  - srcEid: The source chain endpoint ID.  - sender: The sender address on the src chain.  - nonce: The nonce of the message."
        }
      },
      "nextNonce(uint32,bytes32)": {
        "details": "_srcEid The source endpoint ID._sender The sender address.The path nonce starts from 1. If 0 is returned it means that there is NO nonce ordered enforcement.Is required by the off-chain executor to determine the OApp expects msg execution is ordered.This is also enforced by the OApp.By default this is NOT enabled. ie. nextNonce is hardcoded to return 0.",
        "returns": {
          "nonce": "The next nonce."
        }
      },
      "oAppVersion()": {
        "returns": {
          "receiverVersion": "The version of the OAppReceiver.sol implementation.",
          "senderVersion": "The version of the OAppSender.sol implementation."
        }
      },
      "owner()": {
        "details": "Returns the address of the current owner."
      },
      "renounceOwnership()": {
        "details": "Leaves the contract without owner. It will not be possible to call `onlyOwner` functions. Can only be called by the current owner. NOTE: Renouncing ownership will leave the contract without an owner, thereby disabling any functionality that is only available to the owner."
      },
      "setDelegate(address)": {
        "details": "Only the owner/admin of the OApp can call this function.Provides the ability for a delegate to set configs, on behalf of the OApp, directly on the Endpoint contract.",
        "params": {
          "_delegate": "The address of the delegate to be set."
        }
      },
      "setPeer(uint32,bytes32)": {
        "details": "Only the owner/admin of the OApp can call this function.Indicates that the peer is trusted to send LayerZero messages to this OApp.Set this to bytes32(0) to remove the peer address.Peer is a bytes32 to accommodate non-evm chains.",
        "params": {
          "_eid": "The endpoint ID.",
          "_peer": "The address of the peer to be associated with the corresponding endpoint."
        }
      },
      "transferOwnership(address)": {
        "details": "Transfers ownership of the contract to a new account (`newOwner`). Can only be called by the current owner."
      }
    },
    "version": 1
  },
  "userdoc": {
    "kind": "user",
    "methods": {
      "allowInitializePath((uint32,bytes32,uint64))": {
        "notice": "Checks if the path initialization is allowed based on the provided origin."
      },
      "endpoint()": {
        "notice": "Retrieves the LayerZero endpoint associated with the OApp."
      },
      "isComposeMsgSender((uint32,bytes32,uint64),bytes,address)": {
        "notice": "Indicates whether an address is an approved composeMsg sender to the Endpoint."
      },
      "nextNonce(uint32,bytes32)": {
        "notice": "Retrieves the next nonce for a given source endpoint and sender address."
      },
      "oAppVersion()": {
        "notice": "Retrieves the OApp version information."
      },
      "peers(uint32)": {
        "notice": "Retrieves the peer (OApp) associated with a corresponding endpoint."
      },
      "setDelegate(address)": {
        "notice": "Sets the delegate address for the OApp."
      },
      "setPeer(uint32,bytes32)": {
        "notice": "Sets the peer address (OApp instance) for a corresponding endpoint."
      }
    },
    "version": 1
  },
  "storageLayout": {
    "storage": [
      {
        "astId": 1327,
        "contract": "contracts/PaymentSender.sol:PaymentSender",
        "label": "_owner",
        "offset": 0,
        "slot": "0",
        "type": "t_address"
      },
      {
        "astId": 785,
        "contract": "contracts/PaymentSender.sol:PaymentSender",
        "label": "peers",
        "offset": 0,
        "slot": "1",
        "type": "t_mapping(t_uint32,t_bytes32)"
      }
    ],
    "types": {
      "t_address": {
        "encoding": "inplace",
        "label": "address",
        "numberOfBytes": "20"
      },
      "t_bytes32": {
        "encoding": "inplace",
        "label": "bytes32",
        "numberOfBytes": "32"
      },
      "t_mapping(t_uint32,t_bytes32)": {
        "encoding": "mapping",
        "key": "t_uint32",
        "label": "mapping(uint32 => bytes32)",
        "numberOfBytes": "32",
        "value": "t_bytes32"
      },
      "t_uint32": {
        "encoding": "inplace",
        "label": "uint32",
        "numberOfBytes": "4"
      }
    }
  }
}