{
  "address": "0x90D189DAf5bb8A2dc9DAC358d07F4C3198Fe7342",
  "abi": [
    {
      "inputs": [
        {
          "internalType": "address",
          "name": "_endpoint",
          "type": "address"
        },
        {
          "internalType": "address",
          "name": "_owner",
          "type": "address"
        }
      ],
      "stateMutability": "nonpayable",
      "type": "constructor"
    },
    {
      "inputs": [],
      "name": "InvalidDelegate",
      "type": "error"
    },
    {
      "inputs": [],
      "name": "InvalidEndpointCall",
      "type": "error"
    },
    {
      "inputs": [],
      "name": "LzTokenUnavailable",
      "type": "error"
    },
    {
      "inputs": [
        {
          "internalType": "uint32",
          "name": "eid",
          "type": "uint32"
        }
      ],
      "name": "NoPeer",
      "type": "error"
    },
    {
      "inputs": [
        {
          "internalType": "uint256",
          "name": "msgValue",
          "type": "uint256"
        }
      ],
      "name": "NotEnoughNative",
      "type": "error"
    },
    {
      "inputs": [
        {
          "internalType": "address",
          "name": "addr",
          "type": "address"
        }
      ],
      "name": "OnlyEndpoint",
      "type": "error"
    },
    {
      "inputs": [
        {
          "internalType": "uint32",
          "name": "eid",
          "type": "uint32"
        },
        {
          "internalType": "bytes32",
          "name": "sender",
          "type": "bytes32"
        }
      ],
      "name": "OnlyPeer",
      "type": "error"
    },
    {
      "inputs": [
        {
          "internalType": "address",
          "name": "owner",
          "type": "address"
        }
      ],
      "name": "OwnableInvalidOwner",
      "type": "error"
    },
    {
      "inputs": [
        {
          "internalType": "address",
          "name": "account",
          "type": "address"
        }
      ],
      "name": "OwnableUnauthorizedAccount",
      "type": "error"
    },
    {
      "anonymous": false,
      "inputs": [
        {
          "indexed": true,
          "internalType": "address",
          "name": "previousOwner",
          "type": "address"
        },
        {
          "indexed": true,
          "internalType": "address",
          "name": "newOwner",
          "type": "address"
        }
      ],
      "name": "OwnershipTransferred",
      "type": "event"
    },
    {
      "anonymous": false,
      "inputs": [
        {
          "indexed": false,
          "internalType": "address",
          "name": "payer",
          "type": "address"
        },
        {
          "indexed": false,
          "internalType": "uint256",
          "name": "amount",
          "type": "uint256"
        },
        {
          "indexed": false,
          "internalType": "string",
          "name": "txId",
          "type": "string"
        }
      ],
      "name": "PaymentReceived",
      "type": "event"
    },
    {
      "anonymous": false,
      "inputs": [
        {
          "indexed": false,
          "internalType": "uint32",
          "name": "eid",
          "type": "uint32"
        },
        {
          "indexed": false,
          "internalType": "bytes32",
          "name": "peer",
          "type": "bytes32"
        }
      ],
      "name": "PeerSet",
      "type": "event"
    },
    {
      "inputs": [
        {
          "components": [
            {
              "internalType": "uint32",
              "name": "srcEid",
              "type": "uint32"
            },
            {
              "internalType": "bytes32",
              "name": "sender",
              "type": "bytes32"
            },
            {
              "internalType": "uint64",
              "name": "nonce",
              "type": "uint64"
            }
          ],
          "internalType": "struct Origin",
          "name": "origin",
          "type": "tuple"
        }
      ],
      "name": "allowInitializePath",
      "outputs": [
        {
          "internalType": "bool",
          "name": "",
          "type": "bool"
        }
      ],
      "stateMutability": "view",
      "type": "function"
    },
    {
      "inputs": [],
      "name": "endpoint",
      "outputs": [
        {
          "internalType": "contract ILayerZeroEndpointV2",
          "name": "",
          "type": "address"
        }
      ],
      "stateMutability": "view",
      "type": "function"
    },
    {
      "inputs": [],
      "name": "getPayments",
      "outputs": [
        {
          "components": [
            {
              "internalType": "address",
              "name": "payer",
              "type": "address"
            },
            {
              "internalType": "uint256",
              "name": "amount",
              "type": "uint256"
            },
            {
              "internalType": "string",
              "name": "txId",
              "type": "string"
            }
          ],
          "internalType": "struct PaymentLedger.Payment[]",
          "name": "",
          "type": "tuple[]"
        }
      ],
      "stateMutability": "view",
      "type": "function"
    },
    {
      "inputs": [
        {
          "components": [
            {
              "internalType": "uint32",
              "name": "srcEid",
              "type": "uint32"
            },
            {
              "internalType": "bytes32",
              "name": "sender",
              "type": "bytes32"
            },
            {
              "internalType": "uint64",
              "name": "nonce",
              "type": "uint64"
            }
          ],
          "internalType": "struct Origin",
          "name": "",
          "type": "tuple"
        },
        {
          "internalType": "bytes",
          "name": "",
          "type": "bytes"
        },
        {
          "internalType": "address",
          "name": "_sender",
          "type": "address"
        }
      ],
      "name": "isComposeMsgSender",
      "outputs": [
        {
          "internalType": "bool",
          "name": "",
          "type": "bool"
        }
      ],
      "stateMutability": "view",
      "type": "function"
    },
    {
      "inputs": [
        {
          "components": [
            {
              "internalType": "uint32",
              "name": "srcEid",
              "type": "uint32"
            },
            {
              "internalType": "bytes32",
              "name": "sender",
              "type": "bytes32"
            },
            {
              "internalType": "uint64",
              "name": "nonce",
              "type": "uint64"
            }
          ],
          "internalType": "struct Origin",
          "name": "_origin",
          "type": "tuple"
        },
        {
          "internalType": "bytes32",
          "name": "_guid",
          "type": "bytes32"
        },
        {
          "internalType": "bytes",
          "name": "_message",
          "type": "bytes"
        },
        {
          "internalType": "address",
          "name": "_executor",
          "type": "address"
        },
        {
          "internalType": "bytes",
          "name": "_extraData",
          "type": "bytes"
        }
      ],
      "name": "lzReceive",
      "outputs": [],
      "stateMutability": "payable",
      "type": "function"
    },
    {
      "inputs": [
        {
          "internalType": "uint32",
          "name": "",
          "type": "uint32"
        },
        {
          "internalType": "bytes32",
          "name": "",
          "type": "bytes32"
        }
      ],
      "name": "nextNonce",
      "outputs": [
        {
          "internalType": "uint64",
          "name": "nonce",
          "type": "uint64"
        }
      ],
      "stateMutability": "view",
      "type": "function"
    },
    {
      "inputs": [],
      "name": "oAppVersion",
      "outputs": [
        {
          "internalType": "uint64",
          "name": "senderVersion",
          "type": "uint64"
        },
        {
          "internalType": "uint64",
          "name": "receiverVersion",
          "type": "uint64"
        }
      ],
      "stateMutability": "pure",
      "type": "function"
    },
    {
      "inputs": [],
      "name": "owner",
      "outputs": [
        {
          "internalType": "address",
          "name": "",
          "type": "address"
        }
      ],
      "stateMutability": "view",
      "type": "function"
    },
    {
      "inputs": [
        {
          "internalType": "uint256",
          "name": "",
          "type": "uint256"
        }
      ],
      "name": "payments",
      "outputs": [
        {
          "internalType": "address",
          "name": "payer",
          "type": "address"
        },
        {
          "internalType": "uint256",
          "name": "amount",
          "type": "uint256"
        },
        {
          "internalType": "string",
          "name": "txId",
          "type": "string"
        }
      ],
      "stateMutability": "view",
      "type": "function"
    },
    {
      "inputs": [
        {
          "internalType": "uint32",
          "name": "eid",
          "type": "uint32"
        }
      ],
      "name": "peers",
      "outputs": [
        {
          "internalType": "bytes32",
          "name": "peer",
          "type": "bytes32"
        }
      ],
      "stateMutability": "view",
      "type": "function"
    },
    {
      "inputs": [],
      "name": "renounceOwnership",
      "outputs": [],
      "stateMutability": "nonpayable",
      "type": "function"
    },
    {
      "inputs": [
        {
          "internalType": "address",
          "name": "_delegate",
          "type": "address"
        }
      ],
      "name": "setDelegate",
      "outputs": [],
      "stateMutability": "nonpayable",
      "type": "function"
    },
    {
      "inputs": [
        {
          "internalType": "uint32",
          "name": "_eid",
          "type": "uint32"
        },
        {
          "internalType": "bytes32",
          "name": "_peer",
          "type": "bytes32"
        }
      ],
      "name": "setPeer",
      "outputs": [],
      "stateMutability": "nonpayable",
      "type": "function"
    },
    {
      "inputs": [],
      "name": "totalAmount",
      "outputs": [
        {
          "internalType": "uint256",
          "name": "",
          "type": "uint256"
        }
      ],
      "stateMutability": "view",
      "type": "function"
    },
    {
      "inputs": [
        {
          "internalType": "address",
          "name": "newOwner",
          "type": "address"
        }
      ],
      "name": "transferOwnership",
      "outputs": [],
      "stateMutability": "nonpayable",
      "type": "function"
    }
  ],
  "transactionHash": "0x039b2ea3db6fd90285a57890be56c55d971cff766b8ae876d70fc147f4960d50",
  "args": [
    "0x6EDCE65403992e310A62460808c4b910D972f10f",
    "0x10A0bdFCD243E1BBb2b98e6263dbd33F61765bBE"
  ],
  "numDeployments": 1,
  "solcInputHash": "d8370525eba9f11cd945ceeebd16c5cc",
  "bytecode": "0x60a06040523480156200001157600080fd5b50604051620011453803806200114583398101604081905262000034916200017c565b81818181806001600160a01b0381166200006857604051631e4fbdf760e01b81526000600482015260240160405180910390fd5b62000073816200010f565b506001600160a01b038083166080528116620000a257604051632d618d8160e21b815260040160405180910390fd5b60805160405163ca5eb5e160e01b81526001600160a01b0383811660048301529091169063ca5eb5e190602401600060405180830381600087803b158015620000ea57600080fd5b505af1158015620000ff573d6000803e3d6000fd5b50505050505050505050620001b4565b600080546001600160a01b038381166001600160a01b0319831681178455604051919092169283917f8be0079c531659141344cd1fd0a4f28419497f9722a3daafe3b4186f6b6457e09190a35050565b80516001600160a01b03811681146200017757600080fd5b919050565b600080604083850312156200019057600080fd5b6200019b836200015f565b9150620001ab602084016200015f565b90509250929050565b608051610f67620001de6000396000818161017f0152818161034401526105250152610f676000f3fe6080604052600436106100e85760003560e01c806382413eac1161008a578063ca5eb5e111610059578063ca5eb5e1146102c0578063d56bd142146102e0578063f2fde38b14610302578063ff7bd03d1461032257600080fd5b806382413eac1461020757806387d81789146102465780638da5cb5b14610275578063bb0b6a531461029357600080fd5b80633400288b116100c65780633400288b1461014d5780635e280f111461016d578063715018a6146101b95780637d25a05e146101ce57600080fd5b806313137d65146100ed57806317442b70146101025780631a39d8ef14610129575b600080fd5b6101006100fb3660046109ca565b610342565b005b34801561010e57600080fd5b50604080516001815260026020820152015b60405180910390f35b34801561013557600080fd5b5061013f60035481565b604051908152602001610120565b34801561015957600080fd5b50610100610168366004610a7d565b610402565b34801561017957600080fd5b506101a17f000000000000000000000000000000000000000000000000000000000000000081565b6040516001600160a01b039091168152602001610120565b3480156101c557600080fd5b50610100610418565b3480156101da57600080fd5b506101ee6101e9366004610a7d565b61042c565b60405167ffffffffffffffff9091168152602001610120565b34801561021357600080fd5b50610236610222366004610aa7565b6001600160a01b0381163014949350505050565b6040519015158152602001610120565b34801561025257600080fd5b50610266610261366004610b0d565b610435565b60405161012093929190610b6c565b34801561028157600080fd5b506000546001600160a01b03166101a1565b34801561029f57600080fd5b5061013f6102ae366004610b9c565b60016020526000908152604090205481565b3480156102cc57600080fd5b506101006102db366004610bbe565b6104fe565b3480156102ec57600080fd5b506102f5610584565b6040516101209190610bd9565b34801561030e57600080fd5b5061010061031d366004610bbe565b610695565b34801561032e57600080fd5b5061023661033d366004610c63565b6106d3565b7f00000000000000000000000000000000000000000000000000000000000000006001600160a01b03163314610392576040516391ac5e4f60e01b81523360048201526024015b60405180910390fd5b602087018035906103ac906103a7908a610b9c565b610709565b146103ea576103be6020880188610b9c565b60405163309afaf360e21b815263ffffffff909116600482015260208801356024820152604401610389565b6103f987878787878787610745565b50505050505050565b61040a61087b565b61041482826108a8565b5050565b61042061087b565b61042a60006108fd565b565b60005b92915050565b6002818154811061044557600080fd5b60009182526020909120600390910201805460018201546002830180546001600160a01b03909316945090929161047b90610c7f565b80601f01602080910402602001604051908101604052809291908181526020018280546104a790610c7f565b80156104f45780601f106104c9576101008083540402835291602001916104f4565b820191906000526020600020905b8154815290600101906020018083116104d757829003601f168201915b5050505050905083565b61050661087b565b60405163ca5eb5e160e01b81526001600160a01b0382811660048301527f0000000000000000000000000000000000000000000000000000000000000000169063ca5eb5e190602401600060405180830381600087803b15801561056957600080fd5b505af115801561057d573d6000803e3d6000fd5b5050505050565b60606002805480602002602001604051908101604052809291908181526020016000905b8282101561068c576000848152602090819020604080516060810182526003860290920180546001600160a01b03168352600181015493830193909352600283018054929392918401916105fb90610c7f565b80601f016020809104026020016040519081016040528092919081815260200182805461062790610c7f565b80156106745780601f1061064957610100808354040283529160200191610674565b820191906000526020600020905b81548152906001019060200180831161065757829003601f168201915b505050505081525050815260200190600101906105a8565b50505050905090565b61069d61087b565b6001600160a01b0381166106c757604051631e4fbdf760e01b815260006004820152602401610389565b6106d0816108fd565b50565b60006020820180359060019083906106eb9086610b9c565b63ffffffff1681526020810191909152604001600020541492915050565b63ffffffff81166000908152600160205260408120548061042f5760405163f6ff4fb760e01b815263ffffffff84166004820152602401610389565b600061075385870187610d23565b6002805460018101825560009190915281517f405787fa12a823e0f2b7631cc41b3ba8828b3321ca811111fa75cd3aa3bb5ace600390920291820180546001600160a01b0319166001600160a01b0390921691909117815560208301517f405787fa12a823e0f2b7631cc41b3ba8828b3321ca811111fa75cd3aa3bb5acf8301556040830151929350839290917f405787fa12a823e0f2b7631cc41b3ba8828b3321ca811111fa75cd3aa3bb5ad0019061080d9082610e50565b5050508060200151600360008282546108269190610f10565b90915550508051602082015160408084015190517f8dfc1109af223bb7f4e48f38a8a7631f492f0106b90747a651bf181b0fc4e402936108699390929091610b6c565b60405180910390a15050505050505050565b6000546001600160a01b0316331461042a5760405163118cdaa760e01b8152336004820152602401610389565b63ffffffff8216600081815260016020908152604091829020849055815192835282018390527f238399d427b947898edb290f5ff0f9109849b1c3ba196a42e35f00c50a54b98b910160405180910390a15050565b600080546001600160a01b038381166001600160a01b0319831681178455604051919092169283917f8be0079c531659141344cd1fd0a4f28419497f9722a3daafe3b4186f6b6457e09190a35050565b60006060828403121561095f57600080fd5b50919050565b60008083601f84011261097757600080fd5b50813567ffffffffffffffff81111561098f57600080fd5b6020830191508360208285010111156109a757600080fd5b9250929050565b80356001600160a01b03811681146109c557600080fd5b919050565b600080600080600080600060e0888a0312156109e557600080fd5b6109ef898961094d565b965060608801359550608088013567ffffffffffffffff80821115610a1357600080fd5b610a1f8b838c01610965565b9097509550859150610a3360a08b016109ae565b945060c08a0135915080821115610a4957600080fd5b50610a568a828b01610965565b989b979a50959850939692959293505050565b803563ffffffff811681146109c557600080fd5b60008060408385031215610a9057600080fd5b610a9983610a69565b946020939093013593505050565b60008060008060a08587031215610abd57600080fd5b610ac7868661094d565b9350606085013567ffffffffffffffff811115610ae357600080fd5b610aef87828801610965565b9094509250610b029050608086016109ae565b905092959194509250565b600060208284031215610b1f57600080fd5b5035919050565b6000815180845260005b81811015610b4c57602081850181015186830182015201610b30565b506000602082860101526020601f19601f83011685010191505092915050565b60018060a01b0384168152826020820152606060408201526000610b936060830184610b26565b95945050505050565b600060208284031215610bae57600080fd5b610bb782610a69565b9392505050565b600060208284031215610bd057600080fd5b610bb7826109ae565b600060208083018184528085518083526040925060408601915060408160051b87010184880160005b83811015610c5557888303603f19018552815180516001600160a01b0316845287810151888501528601516060878501819052610c4181860183610b26565b968901969450505090860190600101610c02565b509098975050505050505050565b600060608284031215610c7557600080fd5b610bb7838361094d565b600181811c90821680610c9357607f821691505b60208210810361095f57634e487b7160e01b600052602260045260246000fd5b634e487b7160e01b600052604160045260246000fd5b6040516060810167ffffffffffffffff81118282101715610cec57610cec610cb3565b60405290565b604051601f8201601f1916810167ffffffffffffffff81118282101715610d1b57610d1b610cb3565b604052919050565b60006020808385031215610d3657600080fd5b823567ffffffffffffffff80821115610d4e57600080fd5b9084019060608287031215610d6257600080fd5b610d6a610cc9565b610d73836109ae565b81528383013584820152604083013582811115610d8f57600080fd5b80840193505086601f840112610da457600080fd5b823582811115610db657610db6610cb3565b610dc8601f8201601f19168601610cf2565b92508083528785828601011115610dde57600080fd5b80858501868501376000908301909401939093526040830152509392505050565b601f821115610e4b576000816000526020600020601f850160051c81016020861015610e285750805b601f850160051c820191505b81811015610e4757828155600101610e34565b5050505b505050565b815167ffffffffffffffff811115610e6a57610e6a610cb3565b610e7e81610e788454610c7f565b84610dff565b602080601f831160018114610eb35760008415610e9b5750858301515b600019600386901b1c1916600185901b178555610e47565b600085815260208120601f198616915b82811015610ee257888601518255948401946001909101908401610ec3565b5085821015610f005787850151600019600388901b60f8161c191681555b5050505050600190811b01905550565b8082018082111561042f57634e487b7160e01b600052601160045260246000fdfea2646970667358221220e30476eca061bc74d2e7fe3b80c0270f08d26704713a834c081ad301edf5deae64736f6c63430008160033",
  "devdoc": {
    "errors": {
      "OwnableInvalidOwner(address)": [
        {
          "details": "The owner is not a valid owner account. (eg. `address(0)`)"
        }
      ],
      "OwnableUnauthorizedAccount(address)": [
        {
          "details": "The caller account is not authorized to perform an operation."
        }
      ]
    },
    "kind": "dev",
    "methods": {
      "allowInitializePath((uint32,bytes32,uint64))": {
        "details": "This indicates to the endpoint that the OApp has enabled msgs for this particular path to be received.This defaults to assuming if a peer has been set, its initialized. Can be overridden by the OApp if there is other logic to determine this.",
        "params": {
          "origin": "The origin information containing the source endpoint and sender address."
        },
        "returns": {
          "_0": "Whether the path has been initialized."
        }
      },
      "isComposeMsgSender((uint32,bytes32,uint64),bytes,address)": {
        "details": "_origin The origin information containing the source endpoint and sender address.  - srcEid: The source chain endpoint ID.  - sender: The sender address on the src chain.  - nonce: The nonce of the message._message The lzReceive payload.Applications can optionally choose to implement separate composeMsg senders that are NOT the bridging layer.The default sender IS the OAppReceiver implementer.",
        "params": {
          "_sender": "The sender address."
        },
        "returns": {
          "_0": "isSender Is a valid sender."
        }
      },
      "lzReceive((uint32,bytes32,uint64),bytes32,bytes,address,bytes)": {
        "details": "Entry point for receiving messages or packets from the endpoint.Entry point for receiving msg/packet from the LayerZero endpoint.",
        "params": {
          "_executor": "The address of the executor for the received message.",
          "_extraData": "Additional arbitrary data provided by the corresponding executor.",
          "_guid": "The unique identifier for the received LayerZero message.",
          "_message": "The payload of the received message.",
          "_origin": "The origin information containing the source endpoint and sender address.  - srcEid: The source chain endpoint ID.  - sender: The sender address on the src chain.  - nonce: The nonce of the message."
        }
      },
      "nextNonce(uint32,bytes32)": {
        "details": "_srcEid The source endpoint ID._sender The sender address.The path nonce starts from 1. If 0 is returned it means that there is NO nonce ordered enforcement.Is required by the off-chain executor to determine the OApp expects msg execution is ordered.This is also enforced by the OApp.By default this is NOT enabled. ie. nextNonce is hardcoded to return 0.",
        "returns": {
          "nonce": "The next nonce."
        }
      },
      "oAppVersion()": {
        "returns": {
          "receiverVersion": "The version of the OAppReceiver.sol implementation.",
          "senderVersion": "The version of the OAppSender.sol implementation."
        }
      },
      "owner()": {
        "details": "Returns the address of the current owner."
      },
      "renounceOwnership()": {
        "details": "Leaves the contract without owner. It will not be possible to call `onlyOwner` functions. Can only be called by the current owner. NOTE: Renouncing ownership will leave the contract without an owner, thereby disabling any functionality that is only available to the owner."
      },
      "setDelegate(address)": {
        "details": "Only the owner/admin of the OApp can call this function.Provides the ability for a delegate to set configs, on behalf of the OApp, directly on the Endpoint contract.",
        "params": {
          "_delegate": "The address of the delegate to be set."
        }
      },
      "setPeer(uint32,bytes32)": {
        "details": "Only the owner/admin of the OApp can call this function.Indicates that the peer is trusted to send LayerZero messages to this OApp.Set this to bytes32(0) to remove the peer address.Peer is a bytes32 to accommodate non-evm chains.",
        "params": {
          "_eid": "The endpoint ID.",
          "_peer": "The address of the peer to be associated with the corresponding endpoint."
        }
      },
      "transferOwnership(address)": {
        "details": "Transfers ownership of the contract to a new account (`newOwner`). Can only be called by the current owner."
      }
    },
    "version": 1
  },
  "userdoc": {
    "kind": "user",
    "methods": {
      "allowInitializePath((uint32,bytes32,uint64))": {
        "notice": "Checks if the path initialization is allowed based on the provided origin."
      },
      "endpoint()": {
        "notice": "Retrieves the LayerZero endpoint associated with the OApp."
      },
      "isComposeMsgSender((uint32,bytes32,uint64),bytes,address)": {
        "notice": "Indicates whether an address is an approved composeMsg sender to the Endpoint."
      },
      "nextNonce(uint32,bytes32)": {
        "notice": "Retrieves the next nonce for a given source endpoint and sender address."
      },
      "oAppVersion()": {
        "notice": "Retrieves the OApp version information."
      },
      "peers(uint32)": {
        "notice": "Retrieves the peer (OApp) associated with a corresponding endpoint."
      },
      "setDelegate(address)": {
        "notice": "Sets the delegate address for the OApp."
      },
      "setPeer(uint32,bytes32)": {
        "notice": "Sets the peer address (OApp instance) for a corresponding endpoint."
      }
    },
    "version": 1
  },
  "storageLayout": {
    "storage": [
      {
        "astId": 1327,
        "contract": "contracts/PaymentLedger.sol:PaymentLedger",
        "label": "_owner",
        "offset": 0,
        "slot": "0",
        "type": "t_address"
      },
      {
        "astId": 785,
        "contract": "contracts/PaymentLedger.sol:PaymentLedger",
        "label": "peers",
        "offset": 0,
        "slot": "1",
        "type": "t_mapping(t_uint32,t_bytes32)"
      },
      {
        "astId": 2162,
        "contract": "contracts/PaymentLedger.sol:PaymentLedger",
        "label": "payments",
        "offset": 0,
        "slot": "2",
        "type": "t_array(t_struct(Payment)2158_storage)dyn_storage"
      },
      {
        "astId": 2164,
        "contract": "contracts/PaymentLedger.sol:PaymentLedger",
        "label": "totalAmount",
        "offset": 0,
        "slot": "3",
        "type": "t_uint256"
      }
    ],
    "types": {
      "t_address": {
        "encoding": "inplace",
        "label": "address",
        "numberOfBytes": "20"
      },
      "t_array(t_struct(Payment)2158_storage)dyn_storage": {
        "base": "t_struct(Payment)2158_storage",
        "encoding": "dynamic_array",
        "label": "struct PaymentLedger.Payment[]",
        "numberOfBytes": "32"
      },
      "t_bytes32": {
        "encoding": "inplace",
        "label": "bytes32",
        "numberOfBytes": "32"
      },
      "t_mapping(t_uint32,t_bytes32)": {
        "encoding": "mapping",
        "key": "t_uint32",
        "label": "mapping(uint32 => bytes32)",
        "numberOfBytes": "32",
        "value": "t_bytes32"
      },
      "t_string_storage": {
        "encoding": "bytes",
        "label": "string",
        "numberOfBytes": "32"
      },
      "t_struct(Payment)2158_storage": {
        "encoding": "inplace",
        "label": "struct PaymentLedger.Payment",
        "members": [
          {
            "astId": 2153,
            "contract": "contracts/PaymentLedger.sol:PaymentLedger",
            "label": "payer",
            "offset": 0,
            "slot": "0",
            "type": "t_address"
          },
          {
            "astId": 2155,
            "contract": "contracts/PaymentLedger.sol:PaymentLedger",
            "label": "amount",
            "offset": 0,
            "slot": "1",
            "type": "t_uint256"
          },
          {
            "astId": 2157,
            "contract": "contracts/PaymentLedger.sol:PaymentLedger",
            "label": "txId",
            "offset": 0,
            "slot": "2",
            "type": "t_string_storage"
          }
        ],
        "numberOfBytes": "96"
      },
      "t_uint256": {
        "encoding": "inplace",
        "label": "uint256",
        "numberOfBytes": "32"
      },
      "t_uint32": {
        "encoding": "inplace",
        "label": "uint32",
        "numberOfBytes": "4"
      }
    }
  }
}